:020000040800F2
:10000000B0760020F10100082F3F0008A53B000852
:100010002D3F0008ED1400083946000800000000DC
:10002000000000000000000000000000333F000856
:100030000F16000800000000313F0008353F00089F
:100040000B0200080B0200080B0200080B0200085C
:100050000B0200080B0200080B0200080B0200084C
:100060000B0200080B0200080B02000855150008DF
:10007000611500080B0200080B0200080B020008C3
:100080000B0200080B0200080B0200080B0200081C
:100090000B0200080B0200080B0200080B0200080C
:1000A0000B0200080B0200080B0200080B020008FC
:1000B0000B0200080B0200080B0200080B020008EC
:1000C0000B0200080B0200080B0200080B020008DC
:1000D0000B0200080B0200080B0200080B020008CC
:1000E0000B0200080B0200080B0200080B020008BC
:1000F0000B0200080B0200080B0200080B020008AC
:100100000B0200080B0200080B0200080B0200089B
:100110000B0200080B0200080B0200080B0200088B
:100120000B0200080B0200080B0200080B0200087B
:100130000B0200080B0200080B0200080B0200086B
:100140000B0200080B0200080B0200080B0200085B
:100150000B0200080B0200080B0200080B0200084B
:100160000B0200080B0200080B0200080B0200083B
:100170000B0200080B0200080B0200080B0200082B
:100180000B0200080B0200080B0200080B0200081B
:100190000B020008000000000B0200080B02000820
:1001A0000B0200080B0200080B0200080B020008FB
:1001B0000B0200080B0200080B0200080B020008EB
:1001C0000B0200080B0200080B0200080B020008DB
:1001D0000B0200080B020008DFF810D000F07CF8DA
:1001E0000048004779460008AFF30080B076002051
:1001F0000648804706480047FEE7FEE7FEE7FEE7C1
:10020000FEE7FEE7FEE7FEE7FEE7FEE79D3F0008AC
:10021000D90100082DE9F05F0546002092469B4673
:1002200088460646814640241BE02846414647460C
:10023000224600F041F853465A46C01A914110D365
:1002400011461846224600F028F82D1A67EB0108DF
:100250004F4622460120002100F01FF817EB00094D
:100260004E41201EA4F10104DFDC484631462A46F7
:100270004346BDE8F09FD2B201E000F8012B491ED1
:10028000FBD270470022F6E710B513460A46044633
:100290001946FFF7F0FF204610BD202A04DB203A64
:1002A00000FA02F1002070479140C2F1200320FAC9
:1002B00003F3194390407047202A04DB203A21FAC7
:1002C00002F00021704721FA02F3D040C2F120026F
:1002D0009140084319467047064C074D06E0E06818
:1002E00040F0010394E8070098471034AC42F6D37D
:1002F000FFF776FFB01B0208D01B0208F0B5F1B182
:10030000002300BF02EB430C32F813E0BCF802C03C
:100310002EF0030E2CF0030C50F80E5050F80C6029
:1003200000EB0E0400EB0C0740F80E6040F80C5098
:100330007E68656802338B4266607D60E2D3F0BD03
:100340002DE9F0410488984616460746012A0D46D5
:100350000CD1E4B3281D214690ED000A0139B1EE1D
:10036000400A80ED000A00F10800F5D1FF2C0CDDF9
:10037000B4F5806F10DBB4F5805F22D0B4F5006F68
:1003800011D0B4F5806F17D021E03F2C10DC102C79
:1003900012D0202C07D01AE0B4F5807F03D0B4F53A
:1003A000007F0ED013E03846294600F05FF90EE0DA
:1003B000402C06D0802C0AD13846294600F08AF815
:1003C00005E07A6828462146012300F04DFBB8F18C
:1003D000000F04D0B989BA682846FFF78FFF012EB5
:1003E0001CD100EE104A002CB8EE400A08BFBDE850
:1003F000F081B7EE001A81EE000A00BF95ED001AF9
:1004000095ED012A20EE011A22EE402A85ED001A10
:1004100085ED012A013C05F10805EFD1BDE8F08129
:1004200000224260FF294FF0FF0201800EDDB1F58E
:10043000806F16DB29D0B1F5805F2BD0B1F5006F4E
:1004400046D149F65043C0F6000336E03F2913DC9D
:10045000102924D020293BD149F67043C0F600036F
:100460002BE0B1F5807F1FD0B1F5007F30D149F688
:100470009043C0F6000320E040291AD0802927D1FC
:1004800049F63043C0F6000317E049F62043C0F6B2
:10049000000312E049F68043C0F600030DE049F680
:1004A0004043C0F6000308E049F66043C0F600038D
:1004B00003E049F6A043C0F60003191D03F108024A
:1004C0000C331B88126809688381C0E9011200227D
:1004D00050B270472DE9F0472DED028B038880461E
:1004E000084601EB830AD8F804200021B1EBD30FB2
:1004F0004FEA530900F0AB80D9080AEB890C00EBF6
:10050000890E0027C4190AEB070594ED000A95ED42
:10051000003A94ED011A95ED014A0EEB07030CEB3E
:10052000070694ED022A95ED025A70EE035A93EDF8
:10053000006AD6ED001AD6ED012AD6ED023AD6EDC4
:10054000034AC4ED005A71EE045A93ED017AC4EDEA
:10055000015A72EE055AD3ED020AC4ED025AD4EDE7
:10056000035AD5ED036A31EE441A35EEA68A36EE0B
:10057000214AD3ED037A84ED038A83ED004A37EEF6
:10058000224A83ED014A30EEA34A83ED024A37EE58
:10059000A44A83ED034AD31931EEC64A33EEE06A2A
:1005A000D3ED000AD3ED011A30EE430A32EE452AAC
:1005B00032EEC75A60EE202A61EE213A21EE201A6F
:1005C00020EE210A31EE400A85ED010A24EE210ACF
:1005D00025EE211A25EE205A72EEA32A24EE204A97
:1005E00030EE450AC5ED002A86ED000A34EE010A18
:1005F00086ED010A93ED020A93ED031A35EEE63A11
:1006000022EE004A23EE015A23EE003A22EE012A9E
:1006100034EEE77A33EE422A85ED032A26EE012AEC
:1006200027EE011A27EE003A26EE000A34EE054ABC
:1006300032EE432A30EE010A013907F1100785ED49
:10064000024A86ED022A86ED030A7FF45BAF494633
:10065000022300F009FAD8F8042050464946022344
:10066000BDEC028BBDE8F04700F0FEB92DE9F04F7C
:1006700081B02DED088B8EB002880346500801EB47
:10068000800505EB800691ED000A91ED011A96EDCB
:10069000002A96ED013A04935B6806EB800730EE82
:1006A000024A30EE420A31EE032A31EE431A95ED4A
:1006B000013A95ED005A0593930897ED017AD7ED2D
:1006C000000A029374EE452A72EE433A34EE054A6C
:1006D00032EE032A6FF0010334EE204A32EE072A8D
:1006E00003EB920230EE036A71EE451A30EE430AD4
:1006F00031EE051A81ED004A0A9181ED012A510877
:1007000036EE476A71EEA01A72EEE02A73EEC73A2F
:1007100030EE070A31EE601A0095019603970D91AD
:10072000C10085ED006AC5ED011AC6ED002AC6EDCF
:10073000013A87ED000A87ED011A0C9100EB4001A8
:100740006FF007036FF003074FEA800E07EBC00B53
:1007500007EB800A03EB001903EB81028C000020F9
:10076000002500210B9100BF0A9E059B079006956E
:10077000089406EB04080C9C311806EB040C06EBFD
:100780000E0491ED020A9CED022AD4ED020A30EE2D
:10079000026AD8ED022A36EE204A34EE224A91ED62
:1007A000031A9CED033AD4ED031AD8ED033A81ED18
:1007B000024A94ED034A31EE037A98ED035A37EE7C
:1007C000044ACDF824E034EE054A81ED034A0B9942
:1007D00030EE420A31EE431A30EE212A03EB010ECD
:1007E00032EE634A31EE602A0D9932EE225A36EE2D
:1007F000602A37EE613A30EE610A31EE201A1F1896
:10080000581932EE622A33EE633A30EE230A002999
:1008100031EE621A00F0CC800A998E1801EB0A03BF
:1008200001EB0905594493ED007AD6ED010AD1EDAB
:10083000003A77EE202AD5ED014A72EEA35A75EE02
:10084000A45A13ED016AD6ED001A51ED016AD5EDF7
:10085000007AC3ED005A11ED018A76EE215A95ED2A
:10086000009A35EE888A38EE098A03ED018A97ED01
:10087000028A97ED039A24EE08AA25EE09BA25EE1E
:10088000085A24EE094A35EE444A37EE605A84EDA0
:10089000034A36EE614A35EE666A33EEE47A36EEA6
:1008A000276A74EE070A66EE091A20EE899A60EE4E
:1008B000880A26EE086A3AEE0BAA71EEE00A36EED6
:1008C000096A84ED02AAC1ED000A01ED016A90ED0A
:1008D000046AD0ED050A62EE061A23EE208A23EEA2
:1008E000063A22EE202A33EE422A8CED032A32EE1B
:1008F000E32A35EEE63A71EE881A33EE673A32EEC5
:10090000642A0D98CCED021A62EE461A23EE066AAE
:1009100023EE203A22EE202A31EEC33A32EE462A66
:10092000013886ED013A86ED002A0D909EED062AEB
:100930009EED073A0C9820EE026A61EE030A21EE62
:10094000021A20EE030A083031EE400A37EEE61AAA
:10095000DDF824E00C9088ED030A37EE440A31EE0E
:10096000451A0B9821EE034A20EE033A20EE020AC4
:1009700036EE206A21EE021A34EE400A183088ED75
:10098000026A85ED010A31EE030A089C0B9085EDA1
:10099000000A069D07980EF1080E0834103508303D
:1009A000A9F10809083AABF1080BAAF1080ADBE63D
:1009B00097ED026A97ED037A64EE060A65EE071A70
:1009C00025EE065A24EE074A30EEA16A35EE444A77
:1009D00084ED026A84ED034A90ED044A90ED055AD5
:1009E00022EE046A23EE057A23EE043A22EE052A6B
:1009F00036EE074A33EE422A8CED024A8CED032A8A
:100A00009EED062A9EED073A029D20EE024A21EE57
:100A1000035A21EE021A20EE030A0A98059A34EED0
:100A2000052A31EE400A2946042388ED022A88ED82
:100A3000030A00F019F8049C009862682946042310
:100A400000F012F8626801982946042300F00CF8BF
:100A500062680398294604230EB0BDEC088B01B0F0
:100A6000BDE8F04FAFF300802DE9F04F81B02DEDE0
:100A7000108BA0B0DFED04CA00900430CDE9023243
:100A80000190CDE91E1101E0F304353F1F9A4FF0AC
:100A9000000AD308DF00A7EBD200C0001D904FEA88
:100AA000C20C03EB430503EB8302580106931E01BE
:100AB000019B2C014FEAC20EED00CDE90C0ECDE9F1
:100AC0000A5600BF0A9D191803EB05091D9D03EB8B
:100AD0000E0003EB070810ED014A86469A19181913
:100AE00003EB050B13ED011A11ED012A18ED013A84
:100AF00012ED017A50ED010A59ED011A5BED012A60
:100B000031EE025A33EE046A77EE203A71EEA24AD1
:100B100075EE235A76EE246A75EEA67A43ED017AD5
:100B200075EEE65AD8ED007A9EED008A99ED00BA8E
:100B30009BED00CAD3ED006A41ED015AD1ED005A98
:100B400092ED009A90ED00AA37EE88EA7BEE0C8ACF
:100B500036EEA5DA39EE0AFA35EE635A36EE646AF5
:100B60007EEE684A7DEE0F9A7DEE4F3A35EE24DA3E
:100B700035EE645A7EEE28AA02ED01DA33EEC6DACB
:100B800000ED015A36EE235A31EE421A33EE442A72
:100B900037EE603A31EEE24A37EEC86A7BEE4C0A35
:100BA00079EEAABA79EEEA9A72EE441A32EE042A83
:100BB00036EE604A36EE206AC3ED00BAC1ED009A07
:100BC00082ED00DA80ED005A36EEE55A39EE4A7AC7
:100BD00061EEAC1A22EE2C2A24EE2C4A26EE2C6A68
:100BE00071EE210A73EE022A75EE043A77EE064A98
:100BF00031EE611A33EE422A35EE443A37EE464A78
:100C00002646744670EEA45A70EEE40A31EE045A99
:100C10001F9A1E9948ED015A73EEE25A4BED010AF4
:100C200072EEA30A204604ED015A33EE425ADDF873
:100C300034E0C8ED005ACBED000A84ED005A0C9860
:100C400031EE441A34460B9E924409ED011A32EEFD
:100C5000031A8A45634489ED001AFFF433AF1F98E5
:100C60004028C0F0D4810298009E80B2059006987A
:100C7000CDE90E4CC0EBC000C00000240125109748
:100C8000049000BF0598039B044403EBC40191ED5D
:100C9000000A03EB04128DED1D0A92ED000A04EB2D
:100CA000440203EBC2008DED1C0A90ED000A03EB39
:100CB00044118DED1B0A91ED000A04EB8401C8007C
:100CC00003EBC1018DED1A0A91ED000A4FEAC20A49
:100CD0004FEA021B03EB02128DED190A92ED000A96
:100CE000C4EBC4024FEAC40CD10003EBC2028DED89
:100CF000180A92ED000A0CF104024FEA041E1A448D
:100D00008DED170A92ED000A0EF104021A448DEDE2
:100D1000160A92ED000A0AF104024FEA44191A4435
:100D20008DED150A92ED000A09F104021A448DEDC9
:100D3000140A92ED000A043018448DED130A90ED68
:100D4000000A0BF1040018448DED120A90ED000A20
:100D5000081D18440994D0ED006A0796B44608951A
:100D60002B46DDE90C54DDE90A76DDF810808DEDC7
:100D7000110A00BF10980E990CEB05090CEB000E40
:100D80000CEB04000CEB060B0CEB010A0CEB07025E
:100D90000CEB0801DCED027A99ED028A9EED029AD5
:100DA00090ED02AA9BED02DA9AED02EA92ED02FAC8
:100DB000D1ED028A37EE88BA39EE0ACA7DEE0E9A74
:100DC0007FEE28AA7BEE29BAF0EE6C3A7CEE2ACAB6
:100DD0007BEEACDACCED02DA7BEEECBADCED03CAEA
:100DE000D9ED03DADEED03EAD0ED03FA9BED030A59
:100DF0009AED031A92ED032A91ED033A3CEEAD4AC7
:100E00003EEEAF5A30EE016A32EE037A74EE060A15
:100E100075EE071ADDED1A4ADDED135A70EEA12AC0
:100E200070EEE10ACCED032A64EEAB1A65EEA02A5F
:100E300071EEA21A64EEA00A65EEAB2A70EEE20A29
:100E4000C9ED021AC9ED030A7BEE690A7CEE6A1A43
:100E500034EE464A35EE475A9DED1CCADDED154A83
:100E600030EE856A34EE617A6CEE062A24EE87BA9B
:100E70002CEE077A24EE866A30EEC55A31EE844AAB
:100E8000DDED180ADDED111A37EE466A8BED036AC7
:100E900020EE856A21EE847A20EE844A21EE855A7E
:100EA00037EE066A34EE454A39EE4A5A3FEE687A22
:100EB0007EEEEF1A30EE410A32EE431A7BEE222A22
:100EC00035EE472A35EE073A31EEC15A31EE811A36
:100ED000CBED022A8AED026A8AED034A37EEC84A50
:100EE0003DEE4E6A7CEEED0A22EE232A23EE233AF3
:100EF00025EE235A21EE231AF0EE63CA34EE027A6D
:100F000076EE031A70EE852A70EE017ADDED1D3A59
:100F1000DDED164A37EE278A32EEE19A23EE88AAF3
:100F200024EE89BA23EE899ADDED173A37EE677A17
:100F300071EEA21A63EE872A66EEA17A63EEA11A19
:100F400026EE877A24EE888A31EEC77A34EE422A7A
:100F500036EE433A30EEC54A30EE410ADDED190A6D
:100F6000DDED121A39EE488A32EE001A34EE435A99
:100F70008EED038A81ED037A20EE816A21EE857A77
:100F800020EE855A21EE811A3AEE0BAA72EEA72ABC
:100F900036EE076A35EE411A8EED02AAC1ED022A3D
:100FA00080ED026A80ED031A1F9833EE041A0344A1
:100FB0001E989DED1B4A9DED145A32EE400A834265
:100FC0000F9824EE002A25EE013A24EE011A25EEB0
:100FD000000A32EE032A31EE400A844482ED022AEE
:100FE00082ED030AFFF4C6AE089D0698079E013500
:100FF000099C854206F10806FFF444AE0298C00041
:1010000002901F983F2806981F903FF63FAD20B0F2
:10101000BDEC108B01B0BDE8F08F10B578B14FF486
:1010200000710446FFF7FCF950B94FF4806020824C
:1010300049F63040C0F601006061002000E0FF206A
:1010400040B210BD10B568B140210446FFF7E8F981
:1010500048B9802020824AF63040C0F60100606125
:10106000002000E0FF2040B210BD10B578B14FF471
:1010700080610446FFF7D4F950B94FF40060208234
:101080004AF63060C0F601006061002000E0FF20F9
:1010900040B210BD10B570B180210446FFF7C0F911
:1010A00050B94FF4807020824CF63060C0F60100D9
:1010B0006061002000E0FF2040B210BD10B568B1B3
:1010C00010210446FFF7ACF948B9202020824DF2E8
:1010D0003020C0F601006061002000E0FF2040B237
:1010E00010BD10B578B14FF400610446FFF798F9D0
:1010F00050B94FF4805020824DF2B020C0F601006C
:101100006061002000E0FF2040B210BD10B578B152
:101110004FF480710446FFF783F950B94FF4007023
:10112000208241F2B020C0F602006061002000E0A1
:10113000FF2040B210BD10B568B120210446FFF772
:101140006FF948B94020208241F6B020C0F6020075
:101150006061002000E0FF2040B210BDF0B581B01A
:1011600014460E46054673B12846314622461F46B0
:1011700000F060F8284621463A46012301B0BDE858
:10118000F040FFF7DDB82846314600220123FFF783
:10119000D7F828463146224601B0BDE8F04000F0BD
:1011A000A3B8B1F5007F0ADA7F2916DC202929D0FF
:1011B00040293BD141F23711C0F600010847B1F593
:1011C000006F14DAB1F5007F21D0B1F5806F2DD119
:1011D00041F21B01C0F60001084780291CD0B1F57F
:1011E000807F23D141F29501C0F600010847B1F597
:1011F000805F16D0B1F5006F18D141F26B01C0F6D7
:101200000001084741F2BD01C0F60001084741F264
:101210000D11C0F60001084741F24501C0F600017A
:10122000084741F2E301C0F6000108474FF0FF30E4
:101230007047000080B591ED001A91ED012AD0F8B9
:1012400014E0008831EE023AB6EE000A31EE421A9E
:10125000B0F1010C23EE003A21EE001A82ED003AC3
:1012600082ED011A08BF80BD01F1080301EBCC013A
:101270000EF108000832043111ED011A91ED002A37
:1012800093ED003A93ED014A90ED005A90ED016A1A
:1012900033EE417A72EE040A67EE051A60EE862A92
:1012A00027EE066A31EE031A34EE422A25EE205A62
:1012B00031EE611A32EE062A31EE621A32EE452A1A
:1012C00021EE001A22EE002A82ED001A82ED012A98
:1012D000BCF1010C03F1080300F1080002F108025F
:1012E000A1F10801C8D180BD91ED000A91ED011A6C
:1012F0000388406930EE002A31EE011AA3F1010C97
:1013000032EE013AB6EE000A32EE411A23EE003A0E
:1013100021EE001A00F1080301F1080001EBCC01F5
:1013200082ED003A82ED011A0832043111ED011A02
:1013300090ED003A91ED002A90ED014A93ED005AAC
:1013400093ED016A31EE437A72EE040A67EE051AF4
:1013500027EE067A31EE031A34EE422A25EE205AA1
:1013600020EE866A31EE211A32EE072A31EE061A95
:1013700032EE452A21EE001A22EE002A82ED001AF2
:1013800082ED012ABCF1010C03F1080300F1080011
:1013900002F10802A1F10801C8D1704710B5846AB2
:1013A000E16D11F0500F06D0E16DC90625D520463C
:1013B00000F026FD10BDE06D40F40070E06520688F
:1013C0000168090716D502F000FC78B12068C068F2
:1013D000800400280ADBE06D20F48070E065E06D99
:1013E000C00403D4E06D40F00100E065204600F049
:1013F00015FC10BDC0688007EBE7616D496BBDE867
:101400001040084710B5806AC16D41F04001C165C8
:10141000016E41F00401016600F0F2FC10BD10B550
:10142000806A00F075FC10BDF8B5044600200090FD
:101430002068816811F0010F4AD18168254A114264
:1014400037D18168D5432940491C81602068B0F1BB
:10145000A04F02D02049884201D1204800E0204816
:10146000806800F0E07000020DD51E481E4900683B
:10147000B0FBF1F0401C00EB4000800000E0401E9B
:1014800000900028FBD101F0CBFA06461BE08168F2
:1014900011F0010F03D181682940491C816001F0DE
:1014A000BFFA801B02280ED920680068C043C0071D
:1014B00009D0E06D40F01000E065206E40F00100C2
:1014C00020660120F8BD20680168C943C907DED144
:1014D0000020F8BD3F0000800001005000030050D4
:1014E000000700500C000020400D0300FEE710B57F
:1014F000846A204600F074FF0120207110BD10B5F1
:10150000846A204600F082FE0120207110BD10B5D3
:10151000846A206940F004002061204600F062FFE8
:101520000120207110BD10B5846A206940F00400CC
:101530002061204600F06CFE0120207110BD10B526
:10154000806A00F04EFF10BD10B5806A00F05FFEAB
:1015500010BD0000014801F023B800007C0000200D
:10156000014801F01DB80000F00000200D4902689C
:101570008A4201D20C4901E00B492031D2B2142336
:10158000083AB2FBF3F2436C02F01F0223F00303AC
:101590001944816404498031C1640121914001658D
:1015A0007047000008040240000802400179074A21
:1015B00002EB81024265054A4432491E826501F010
:1015C0001F0201219140C16570470000FC080240E4
:1015D00030B5D0E913456560446D14B1D0E91645C6
:1015E000656090F8444004F01F050124AC40056C90
:1015F0006C60046863608368102B036803D0996093
:101600000068C26030BD9A600068C16030BD70473C
:1016100072B6FEE710B54FF480610B48FFF7C1FDCD
:101620000A4900204FF4006221F81020401C90422B
:10163000FADB002001EB400303F5C043401C1A8095
:101640009042F7DB10BD000094720020940200204D
:101650002DE9F04F044690F858009BB00F464FF02C
:10166000000B012812D0012084F85800002617969C
:10167000189620684FF0A048DFF81C91DFF81CA1F5
:10168000474D404506D12846009508E002201BB092
:10169000BDE8F08F48450AD15046CDF800A002F0D1
:1016A00090FA0090206802F08CFA40B109E0E06DF9
:1016B00040F02000E06584F858600120E7E70098DA
:1016C00050B1E06D40F02000E0654FF0010B00BF2D
:1016D00084F858605846DAE720684146884201D0CD
:1016E000A84201D12F4800E02F48D7F800C02F4B67
:1016F00040F61F72BCF1000F2DD0D0F808C094F84E
:1017000038802CF4604C4CEA483CD7F804804CEA12
:10171000080CC0F808C0D4F800C08C4501D0AC4516
:1017200004D18968AB6801F0010109E0D9F808101B
:10173000DAF8085001F0010105F001059B68294322
:1017400003F001031943C3D1BB68396819438368A7
:10175000934319431DE0876827F460478760276833
:101760008F4201D0AF4204D18968AB6801F001011A
:1017700009E0D9F80810DAF8085001F0010105F085
:1017800001059B68294303F001031943A0D1816837
:10179000914381609CE70000000400500005005068
:1017A00000010050000300500007005000060050E8
:1017B0002DE9F84F00270446009790F85800DFF80D
:1017C0001C840D46B946012811D0012684F85860C2
:1017D000206802F0F2F960B1E06D40F02000E065B1
:1017E0005FF0010784F858903846BDE8F88F022072
:1017F000FBE7D5E900210C23206803EA9113184484
:10180000036B01F01F014FF01F0C0CFA01FCC2F337
:10181000846223EA0C038A4013430363206802F0C6
:10182000CCF98246206802F0C4F95AEA00003CD1A3
:10183000AA6829682068B2F1004F37D002F0CDF9CC
:101840002068416921F00041416120686969C268EE
:10185000C2F3C102520091402A69042A31D000EB40
:1018600082002B68026EDFF878C303F0F84302EAC7
:101870000C020B431A4342F00041016622682869BA
:10188000A96902EB8000026E22F080720A430266B0
:10189000297F22682869012910D0002102EB8000ED
:1018A000026E22F000720A4302667DE0002202F01E
:1018B00094F92068416941F00041C5E74FF000719B
:1018C000ECE7002102F06FF9400320684FF00001BF
:1018D00072D002F068F990FAA0F0B0FA80F12868AE
:1018E00042036ED090FAA0F0B0FA80F0814204D1A9
:1018F00000221146206802F07FF90121206802F0E1
:1019000052F9400320684FF001015DD002F04BF91D
:1019100090FAA0F0B0FA80F12868420359D090FA0A
:10192000A0F0B0FA80F0814204D1002201212068A9
:1019300002F062F90221206802F035F940032068C4
:101940004FF0020148D002F02EF990FAA0F0B0FA60
:1019500080F12868420344D090FAA0F0B0FA80F0F9
:10196000814204D100220221206802F045F90321BE
:10197000206802F018F9400320684FF0030133D0CB
:1019800002F011F990FAA0F0B0FA80F12868420351
:101990002FD090FAA0F0B0FA80F0814204D100225A
:1019A0000321206802F028F92068816811F0010FF6
:1019B00022D0ACE000E004E002F0F5F8C0F384616E
:1019C0008DE7C0F3846091E702F0EDF8C0F3846125
:1019D000A2E7C0F38460A6E702F0E5F8C0F38461F3
:1019E000B7E7C0F38460BBE702F0DDF8C0F38461C1
:1019F000CCE7C0F38460D0E72A7B296850F8B03F79
:101A0000C1F3120C23EA0C0302F0180C754A22FAF7
:101A10000CF20A4013430360E968414577D1286816
:101A200041031CD090FAA0F1B1FA81F1491C01F0F8
:101A30001F0109294FEA403132D8002912D000BFD6
:101A400090FAA0F1B1FA81F101F1010101F01F0159
:101A500006FA01F609D100BFC0F3846109E0C0F3C2
:101A60008461E3E7C0F38461EEE790FAA0F1B1FA94
:101A700081F101F1010101F01F0146EA816102D10A
:101A8000C0F3846003E090FAA0F0B0FA80F000F1B7
:101A9000010000F01F0000EB400041EA005132E07D
:101AA00000290ED090FAA0F1B1FA81F101F1010103
:101AB00001F01F0106FA01F606D100BFC0F38461F0
:101AC00006E0C0F38461F1E790FAA0F1B1FA81F188
:101AD00001F1010101F01F0146EA816102D1C0F369
:101AE000846003E090FAA0F0B0FA80F000F1010009
:101AF00000F01F003C4A00EB400002EB005041EABE
:101B0000000141F00071AA68206802F066F83748C9
:101B10002B6803423FF466AE21684FF0A04C344876
:101B2000344E354D614501D0A94201D1024600E055
:101B300032469268DFF8C48002F0E072434503D079
:101B4000DFF8BC80434521D15FEA02281ED46145FD
:101B500006D02C4B99427FF445AEA94200D03046C6
:101B600042F40001826822F0E0720A438260264853
:101B700026490068B0FBF1F0401C00EB40008000FB
:101B800000E0401E00900028FBD12BE6DFF88080AB
:101B900043450FD15FEAC2180CD4A94202D11D4BB4
:101BA0009942F2D0614502D0A94200D0304642F0BD
:101BB00080710CE0DFF860804345E6D15302E4D445
:101BC000A942E2D0614500D0304642F480018268EB
:101BD00022F0E0720A43826004E6000000007F40C9
:101BE00000F0FF03FFFF0700000020FE0000088058
:101BF000000300500007005000010050000021C306
:101C00001000C090000600500C000020400D0300A2
:101C1000000052C700050050000084CB70B5344C62
:101C200000204FF4806600BF04EB40014FF4A04257
:101C3000401C525A01F5C041B0420A80F4DB3546DF
:101C4000DFED2C0AB0EE0C1A4FF4006134F81500E9
:101C500000EE100A04EB850000F58050F8EE401A03
:101C60006D1C8D4281EEA00A20EE010A80ED000A73
:101C7000ECDB214A0023A2F58051154601F5C04056
:101C8000FFF76CFA9FED1D0AC82000BF04EB80012E
:101C900001F50051401C81ED000AB042F6DB184A04
:101CA0000123294602F54050FFF758FA9FED151A17
:101CB000DFED151A9FED150A002000BF04EB80012F
:101CC00001F5804104EB4002D1ED000A02F5A0428B
:101CD000401C80EE812AF0EE400AB04242EE210A1A
:101CE000FCEEE00A10EE901AA2F80018E6DB70BDD8
:101CF0009402002000F07F459422002000000000A4
:101D0000944200203333534000803B4500007A4426
:101D100070B54FF48066324C3546710004EB4500D7
:101D20004FF4B0426D1C125A00F5C0408D42028043
:101D3000F4DB0020DFED2B0AB0EE0C1A34F81010A3
:101D400000EE101A04EB800101F58051F8EE401A04
:101D5000401CB04281EEA00A20EE010A81ED000A8B
:101D6000ECDB214A0023A2F58051154601F5C04065
:101D7000FFF7F4F99FED1D0AC82000BF04EB8001B6
:101D800001F50051401C81ED000AB042F6DB184A13
:101D90000123294602F54050FFF7E0F99FED151A9F
:101DA000DFED151ADFED150A002000BF04EB8001FE
:101DB00001F5804104EB400291ED000A02F5A042DA
:101DC000401C80EE012AB0EE600AB04202EE210A09
:101DD000BCEEC00A10EE101A1180E7DB70BD0000E7
:101DE0009402002000F07F459422002000000000B3
:101DF000944200203333534000803B4500007A4436
:101E000070470000F8B54FF0000504002E4600951D
:101E100002D0E06D10B107E00120F8BD204600F0CF
:101E200009F9266684F8586020688168C1F340711A
:101E300019B18168734A1140816020688168C1F3DB
:101E4000007189B98168704A114041F08051816008
:101E50006E486F490068B0FBF1F04000801C00E064
:101E6000401E00900028FBD120688168C1F30071FA
:101E700041B9E16D41F01001E165216E41F00101D0
:101E80002166012501F099FEE16DC90600D430B14B
:101E9000E06D40F01000E06501252846F8BDE06DDA
:101EA00020F4807040F00200E0652068816811F045
:101EB000010F27D14FF0A043564A984201D09042DB
:101EC00004D19968966801F001010AE052498968D5
:101ED000524E01F00101B66806F001063143504E42
:101EE000B66806F0010631430CD1984201D0904209
:101EF00001D14C4800E04C486168826822F47C12B1
:101F00000A438260E168E06B627F0843A16841EAAE
:101F10004231084394F8241040EA0140012904D1D9
:101F2000218D424A02EB41410843E16A29B101F4A3
:101F30007871226B014342EA01002268D1683C4B70
:101F400019400143D16020680169626B21F0406152
:101F500011430161206801F02CFE70BB207F94F8D2
:101F600038102268800340EA4100D16844F202033D
:101F700099430143D16020690028206801690AD093
:101F800041F480310161206850F8C01F22696FF36D
:101F90000D01114307E021F480310161206850F800
:101FA000C01F6FF30D01016094F8400001280CD0B0
:101FB0002068016921F00101016160690128206840
:101FC000016B21F00F0111D013E0D4E91101084396
:101FD000D4E913121143084321680A6940F2FC73E3
:101FE0009A43104340F001000861E6E7226A521E5E
:101FF00011430163E06D20F0020040F00100E06554
:102000004BE70000C0FFFF5FC0FFFF7F0C00002018
:10201000400D030000010050000400500005005076
:102020000006005000030050000700500000FEFFB3
:102030000740F0FF70B59CB00546142115A8FEF7C7
:1020400021F954216846FEF71DF92868B0F1A04F28
:102050003ED14FF40040009080031190684600F09C
:10206000DDFD08B1FFF7D4FA1A49C86C40F40050FE
:10207000C864C86C00F400501A90C86C40F00100AD
:10208000C864C86C002600F001001A900120159069
:102090000320CDE9160615A94FF0904000F096FBFD
:1020A0000E4C0D4820600520C4E901068020C4E9DB
:1020B0000360400060618000A0612020C4E9070641
:1020C000204600F0CBFA08B1FFF7A2FA6C65A562D2
:1020D0001CB070BD00100240080002407C000020CF
:1020E0002DE9F047044600684FF0A0483D4F914667
:1020F0008A46404501D0B84201D13B4900E03B4906
:10210000896801F01F0501F058FD002868D194F896
:102110005800012864D0012084F858003449206810
:10212000884201D1012000E00020401E28424FF0EB
:10213000000605D0052D03D0092D01D0012003E0B4
:102140002046FFF771F918B184F85860BDE8F087B0
:10215000E06D40F60161884340F48070E0652068DE
:10216000B84201D1414605E02249884201D12249C5
:1021700000E00146814200D01DB9E06D20F48010DE
:10218000E065E06DC00404D5206E20F006002066F6
:1021900000E02666616D1948C862616D18480863E1
:1021A000616D1848486321681C20086084F85860F5
:1021B0002068416841F0100141602068C16841F029
:1021C0000101C16021684B4652464031606D00F00C
:1021D000A5FA21688A680C4B1A40121D8A60B5E77F
:1021E0000220B3E700010050000300500007005038
:1021F0000006005000050050000400509D13000828
:102200001F14000805140008C0FFFF7F70477047C7
:10221000704700002DE9F04790460D4604004FF04E
:10222000000A0FD075B1607901280ED04FF0010976
:1022300084F8059002202071A96808F0100604298E
:1022400005D04AE00120BDE8F0870220FBE700F05E
:10225000E7FB07465FEA08004FF0030809D022E0D9
:1022600000F0DEFBC01B012803D92068406B00048E
:1022700011D42068406B0004F2D42168686A0864B5
:1022800018E000BF00F0CCFBC01B01280BD9206870
:10229000406B002807DA206940F00800206184F8CC
:1022A00004800320CFE72068406B0028EADB216828
:1022B000686A48642068816C40F2FF32B240914302
:1022C000AA6AB240114381642068C16CFF22B24007
:1022D0009143EA6AB2401143C164E869012808D118
:1022E0002268916B1F20B0408143286AB0400843A8
:1022F00090632068C06B0721B1408843A969012918
:1023000003D0022957D06969F1B300216B69AA682B
:102310001A430A434FF4807101FA06F398432B796C
:10232000012B00D0002111434FF4007202FA06F392
:1023300098436B79012B00D0002220F44047286895
:1023400042EA0108022838D057EA0007216808FA53
:1023500006F03843C863206801684FF48042B240F9
:10236000914301602268116840F6FE70B0408143DD
:10237000E868B0400843106020680168C022B2409D
:1023800091430160287B00E015E0297CC0F38300C5
:1023900001F03C0140EA811021680A6E40F60F739B
:1023A000B3409A43B04002430A6684F80490002088
:1023B0006071504647E70121A8E700F09DFE0649FD
:1023C000884202D947F40047C0E704498842BDD992
:1023D00047F48047BAE700000068890900B4C404E4
:1023E00070477047704770B5040003D0207900250E
:1023F00010B105E0012070BD6571204600F008F8BD
:1024000002202071256101202071002070BD000094
:10241000F0B587B0054614216846FDF733FF1D4926
:102420002868884233D11C49C86C40F48030C864A5
:10243000C86C00F480300590C86C40F00100C8649E
:10244000C86C102700F001000097059003200026BB
:10245000CDE9010669464FF0904000F0B7F9104C05
:102460000E4820600620C4E901078020C4E903600B
:10247000800060614000A0612020C4E9070620467A
:1024800000F0ECF808B1FFF7C3F8AC60A56207B044
:10249000F0BD000000080050001002401C00024087
:1024A000F0000020F8B50400069817460D461BD032
:1024B000617901291AD00126667102212171BDB10D
:1024C000E2682F49D162E2682E491163E2682E4921
:1024D000516321680A6842F080520A6038B322686A
:1024E000042827D01C3226E00120F8BD0220F8BDC8
:1024F000A2682649D162A26825491163A2682549CC
:10250000516321680A6842F480520A6020B122684F
:10251000042804D0103203E02268083200E00C32B4
:102520002068016841F400510160A06809E0226858
:10253000143200E018322068016841F00051016057
:10254000E068394600F0EAF80021617120B12169A4
:1025500041F004012161F8BD21680A6805F010030B
:102560009E4032430A600C490C4A0968B1FBF2F103
:10257000491C00E0491E00910029FBD1F8BD000074
:10258000FF1400084915000827150008EF1400087B
:102590003F1500080F1500080C000020400D030037
:1025A000F0B4016C0C6801680D6890F8442002F0EA
:1025B0001F06042202FA06F3234211D06B070FD53F
:1025C0000B689B0603D40B6823F004030B6090F8A0
:1025D000441001F01F018A40016C4A60016B1DE04C
:1025E000022303FA06F727424FF0000C4FF00102D6
:1025F00018D0AF0716D50C68A40605D40C6824F0D3
:102600000A040C6080F8252090F8441001F01F01A6
:102610008B40016C4B6080F824C0C16A00291AD03D
:10262000F0BC08470823B340234214D02B0712D52F
:102630000B6823F00E030B6090F84410036C01F05C
:102640001F0102FA01F15960C26380F8252080F869
:1026500024C0416BE2E7F0BC7047000070B5040095
:102660000CD02B4A21681420914209D2294A0A44ED
:10267000B2FBF0F08000606427480AE0012070BDE2
:10268000234A52420A44B2FBF0F0800060642048C2
:1026900008382064022084F825000A6847F6F070A4
:1026A0008243D4E902031843D4E904352B43184389
:1026B000A3691843E3691843236A18431043086069
:1026C0002046FEF753FFA0680025B0F5804F00D1EB
:1026D0006560A16C20790860D4E9130141606068ED
:1026E000401E032808D82046FEF760FF606D056095
:1026F000D4E91601416002E06565A565E565E5631D
:10270000012084F8250084F82450002070BD0000CA
:1027100008040240F8FFFDBF0000024070B5044607
:1027200090F82400002501280CD0012084F8240012
:1027300094F825600020012E06D084F8240002259C
:10274000284670BD022070BD022684F82560E06333
:102750002068066826F0010606602046FEF738FF6E
:10276000206B00282068016802D041F00E0106E0CD
:1027700021F0040101602068016841F00A01016054
:10278000A06C0168C90303D5016841F48071016040
:10279000606D18B1016841F48071016020680168C2
:1027A00041F001010160CBE770B5044600F038F953
:1027B0000546601C02D004484068044400F030F92B
:1027C000401BA042FAD370BD000000202DE9F04F5D
:1027D000DFF82092002301260324A9F1040B85B021
:1027E0000F2709F1040AABF1040EFAE006FA03F52B
:1027F0002A407CD091F804C00CF0030CBCF1010F0E
:1028000002D0BCF1020F26D1D0F808C0CDF800C02C
:102810004FEA430C04FA0CF8CDF810C0DDF800C004
:102820002CEA080CCDF800C0D1F80C80DDF810C0FF
:1028300008FA0CF8DDF800C048EA0C08C0F8088077
:10284000D0F804C02CEA050C0D79C5F300159D40A5
:1028500045EA0C0545600D79ED43AD070ED0C5681E
:102860004FEA430804FA08FC25EA0C05D1F808C031
:102870000CFA08FC4CEA050CC0F80CC00D7905F008
:102880000305022D16D1DD0800EB850CCDF808C03C
:10289000DCF820805D074FEAD56C07FA0CF528EAD2
:1028A00005080D6905FA0CF5DDF808C045EA0805CC
:1028B000CCF8205005684FEA430CCDF808C004FA64
:1028C0000CFC25EA0C0591F804C00CF00308DDF8B7
:1028D00008C008FA0CF848EA0508C0F800804D68FE
:1028E00015F4403F7CD0444DD5F860C000E077E05F
:1028F0004CF0010CC5F860C02D6E23F0030C05F000
:10290000010500953D4D65440295AD684FEA837C15
:102910004FEA1C7807FA08FC25EA0C05B0F1904F45
:1029200006D0DFF8DCC0604505D14FF0010C20E097
:102930004FF0000C1DE0DFF8CCC0604502D14FF035
:10294000020C16E0DFF8C0C0604502D14FF0030C66
:102950000FE0DFF8B8C0604502D14FF0040C08E08A
:10296000DFF8ACC0604502D14FF0050C01E04FF03C
:10297000060C0CFA08FC4CEA050C029DC5F808C0D0
:10298000D9F80050CC46D1F8048095435FEAC828B6
:1029900000D51543CCF80050DAF80050D446D1F8F1
:1029A000048095435FEA882800D51543CCF8005091
:1029B000DBF80050DC46D1F8048095435FEA8838A4
:1029C00000D51543CCF80050DEF80050F446D1F89D
:1029D000048095435FEAC83800D51543CCF8005011
:1029E0005B1C0A6832FA03F57FF400AF05B0BDE85E
:1029F000F08F000008040140001002400000014078
:102A00000004004800080048000C0048001000487E
:102A1000001400480AB1816170478162704700006C
:102A2000014880687047000000000020024881686B
:102A300042681144816070470000002010B50024F6
:102A4000032000F073F80F2000F008F808B101240B
:102A500001E000F025F8204610BD000070B50E4ED4
:102A600005460024706898B14FF47A71B1FBF0F01C
:102A70000A490968B1FBF0F000F046FE40B9102D9C
:102A800006D200222946501E00F030F8356000E0E2
:102A90000124204670BD0000000000200C00002032
:102AA0000A4882B0016E41F001010166016E01F039
:102AB00001010091816D41F080518165806D00F0D0
:102AC0008050009002B000F0A1B800000010024059
:102AD000002809DB00F01F0201219140400980001D
:102AE00000F1E020C0F8001170470000F0B40E4B78
:102AF0001B680C46C3F30223C3F10705042D00D95C
:102B00000425191D072901D2002300E0DB1E012640
:102B100006FA05F1491E214099409E40761E164056
:102B20003143F0BC01F089BD0CED00E0064900F036
:102B3000070208684FF6FF03184040EA0220034AE4
:102B400010430860704700000CED00E00000FA053B
:102B50002B492C4B0A6832214A432B4940B1B0F52E
:102B6000007F086829D020F4C06040F480602CE029
:102B70000868C0F34120022804D051F8800F20F4E7
:102B8000807022E0D1F8800020F48070C1F88000CD
:102B9000086820F4C06040F400700860B2FBF3F0F5
:102BA000401C00E0401E4A69520501D50028F9D1B9
:102BB000486940050AD503207047C0F34120022828
:102BC00006D051F8800F40F48070086000207047F4
:102BD000D1F8800040F48070C1F88000086820F4CB
:102BE000C06040F400700860B2FBF3F0401C00E0ED
:102BF000401E4A695205DBD50028F9D1D8E700000C
:102C00000C00002040420F00007000400248816824
:102C100041F4804181607047007000402DE9F84325
:102C2000044600680026BB4D00035ED5A86D002752
:102C3000C00008D4A86D40F08050A865A86D012799
:102C400000F080500090DFF8D092D9F8001041F4E5
:102C50008071C9F80010FFF7E3FE804606E000BF70
:102C6000FFF7DEFEA0EB080002282BD8D9F8000001
:102C7000C005F5D5D5F8900010F4407014D0216D42
:102C8000814211D0D5F89000D5F8901020F4407012
:102C900041F48031C5F89010D5F8901021F48031BE
:102CA000C5F89010C5F89000C00711D0FFF7B8FE26
:102CB000804641F2883907E0FFF7B2FEA0EB080139
:102CC000494501D903260BE0D5F890008007F3D5DC
:102CD000D5F89000216D20F440700843C5F89000AD
:102CE0001FB1A86D20F08050A8652078C00707D0DC
:102CF000D5F88800616820F003000843C5F8880013
:102D00002078800707D5D5F88800A16820F00C004E
:102D10000843C5F888002078400707D5D5F8880013
:102D2000E16820F030000843C5F8880020780007EB
:102D300007D5D5F88800216920F0C0000843C5F800
:102D400088002078C00607D5D5F88800616920F48E
:102D500040700843C5F888002078800607D5D5F86C
:102D60008800A16920F440600843C5F888002078F5
:102D7000400607D5D5F88800E16920F440500843A3
:102D8000C5F888002078000607D5D5F88800216AA4
:102D900020F440400843C5F888002088C00507D5C6
:102DA000D5F88800616A20F440300843C5F88800EF
:102DB0002068800307D5D5F89C00A16A20F00300A5
:102DC0000843C5F89C002088800507D5D5F8880001
:102DD000E16A20F440200843C5F8880020884005B7
:102DE0000FD5D5F88800216B20F440100843C5F8B2
:102DF0008800206BB0F5801F03D1E86840F4801094
:102E0000E860208800050FD5D5F88800616B20F4B4
:102E100040000843C5F88800606BB0F5800F03D10F
:102E2000E86840F48010E8602088C0040FD5D5F829
:102E30008800A16B20F040700843C5F88800A06BA3
:102E4000B0F1807F03D1E86840F48010E86020880A
:102E50004FF0006180040ED5D5F88800E26B20F0B9
:102E600040601043C5F88800E06B884203D1E868F1
:102E700040F48010E860208840040ED5D5F8880022
:102E8000226C20F040601043C5F88800206C884216
:102E900003D1E86840F48010E860208800040FD572
:102EA000D5F88800616C20F040500843C5F88800D0
:102EB000606CB0F1805F03D1E86840F48030E86076
:102EC0002068C0030FD5D5F88800A16C20F04040E1
:102ED0000843C5F88800A06CB0F1804F03D1E868C2
:102EE00040F48030E860206840030FD5D5F89C009E
:102EF000E16C20F440100843C5F89C00E06CB0F58C
:102F0000001F03D1E86840F48010E8603046BDE857
:102F1000F883000000100240007000402DE9F047E7
:102F20000E4605004FF0000725D0DFF8AC81D8F839
:102F3000000000F00F00B0420CD2D8F8001021F0D1
:102F40000F013143C8F80010D8F8000000F00F005E
:102F5000B04210D12968614CC80741F2883A5AD072
:102F60006868DFF87C91032808D0022820682DD0FB
:102F7000400500282CDB0120BDE8F0872068800197
:102F8000F9D5E06800F00302E068C0F30310401CCC
:102F9000032A19D0534A00BFB2FBF0F0E268C2F333
:102FA00006225043E268C2F34162521C5200B0FB59
:102FB000F2F0484517D9A06810F0F00F0CD0880740
:102FC00011D5A86840B10EE0474AE5E78003D0E795
:102FD00000F0BCF8484506D9A06820F0F00040F0A9
:102FE0008000A0608027A068696820F00300084383
:102FF000A060FFF715FD814606E000BFFFF710FD5A
:10300000A0EB090151453AD8A068696800F00C00AE
:10301000B0EB810FF2D12868810714D5400703D5A2
:10302000A06840F4E060A0602878000705D5A0689B
:1030300020F4605040F4E060A060A068A96820F02F
:10304000F000084304E0802F03D1A06820F0F000D6
:10305000A060D8F80010404601F00F01B14216D927
:10306000016821F00F0131430160FFF7D9FC0746E9
:1030700007E000BFFFF7D4FCC11B514501D9032075
:103080007AE7D8F8000000F00F00B042F2D12878BB
:10309000400705D5A068E96820F4E0600843A06017
:1030A0002878000706D5A068296920F4605040EA16
:1030B000C100A06000F04AF8A1680C4AC1F30311F6
:1030C000515C01F01F01C8400949086009480068C7
:1030D000BDE8F047FFF7C2BC0020024000100240EC
:1030E00000B4C4040024F40000127A003047000841
:1030F0000C0000200000002001480068704700001C
:103100000C0000200548064900688968054AC1F39B
:103110000221515C01F01F01C84070470C000020E3
:1031200000100240404700080548064900688968C9
:10313000054AC1F3C221515C01F01F01C84070472C
:103140000C0000200010024040470008184910B54C
:103150008868C0F381021748012A0BD08A6843109F
:10316000C2F38102022A06D08A68C2F38102032ACE
:1031700003D0002010BD184610BDCA6802F0030439
:10318000CA68C2F30312521C032C02D0B0FBF2F047
:1031900001E0B3FBF2F0CA68C968C2F306225043EB
:1031A000C1F34161491C4900B0FBF1F010BD0000C2
:1031B000001002400024F4002DE9F84304007AD006
:1031C0002078F84DC00747D0A868E96800F00C00E7
:1031D00001F003010C2802D0082817D001E00329D0
:1031E00014D06068B0F5803F17D0B0F5A02F2868E4
:1031F00017D020F480302860286820F480202860D0
:103200006068E0B1FFF70CFC064614E02868800314
:1032100022D560680028D2D01EE0286840F48030B3
:10322000EDE740F480202860F7E700BFFFF7F8FBE8
:10323000801B642870D828688003F7D50CE0FFF75E
:10324000EFFB064605E000BFFFF7EAFB801B6428A2
:10325000F0D828688003F7D4207880074CD5A86878
:10326000E96800F00C0001F003010C2802D00428EA
:103270000DD001E002290AD0E068002828682BD090
:1032800040F480702860FFF7CBFB064619E0286801
:10329000400502D5E068002891D06868217C20F0C4
:1032A000FE4040EA01606860BF480068FFF7D6FB57
:1032B000002800D120E072E1FFF7B2FB801B02285A
:1032C000B8D828684005F7D56868217C20F0FE4012
:1032D00040EA016068600FE020F480702860FFF72A
:1032E0009FFB064605E000BFFFF79AFB801B022804
:1032F000A0D828684005F7D42078000729D5606950
:103300000028D5F8940013D040F00100C5F89400CF
:10331000FFF786FB064606E090E000BFFFF780FB64
:10332000801B022886D8D5F894008007F6D510E0D7
:1033300020F00100C5F89400FFF772FB064604E098
:10334000FFF76EFB801B022878D8D5F89400800721
:10335000F6D42078400761D5A86D0026C00008D4B7
:10336000A86D40F08050A865A86D012600F080503F
:1033700000908E480168C90511D40168804641F467
:1033800080710160FFF74CFB074604E0FFF748FB44
:10339000C01B022852D8D8F80000C005F6D5A06896
:1033A000012815D00528D5F8900016D020F001008E
:1033B000C5F89000D5F8900020F00400C5F8900002
:1033C000A06841F28838B8B1FFF72AFB07460EE043
:1033D000D5F8900040F00100F0E740F00400C5F897
:1033E0009000F5E7FFF71CFBC11B414526D8D5F837
:1033F00090008007F6D50CE0FFF712FB074604E0CB
:10340000FFF70EFBC11B414518D8D5F89000800787
:10341000F6D41EB1A86D20F08050A86520788006F3
:1034200029D5A0690028D5F8980013D040F00100F4
:10343000C5F89800FFF7F4FA064606E075E000BF0D
:10344000FFF7EEFA801B02286FD8D5F898008007A6
:10345000F6D510E020F00100C5F89800FFF7E0FA7B
:10346000064604E0FFF7DCFA801B02285DD8D5F899
:1034700098008007F6D4E069F0B3A968C1F3810130
:1034800003295DD00228286820F08070286003D0CE
:10349000FFF7C6FA04464BE0FFF7C2FA064604E01F
:1034A000FFF7BEFA801B02283FD828688001F7D4B6
:1034B000F4E908016FF00F0202EB01110843218AC1
:1034C0005204490802EB4151A26841EA0221084333
:1034D000217D4FF07E42490802EB41610843217B88
:1034E00040EAC160E968324A11400843E860286850
:1034F00040F08070286000E05EE0E86840F0807096
:10350000E860FFF78DFA044605E000BFFFF788FA90
:10351000001B022809D828688001F7D54CE000BFBD
:10352000FFF77EFA001B022802D90320BDE8F883CA
:1035300028688001F4D4E8681E490840E8603BE050
:103540000128F3D0E868226A00F00301914226D1F5
:10355000616A00F0F0020901103991421FD1A26A9C
:1035600000F4FE41B1EB022F19D194F82C2000F0A9
:103570007841B1EBC26F12D1218E00F4C00249082C
:103580004905A1F50011914209D194F8341000F0D9
:10359000C06049084906A1F1007181420CD00120A8
:1035A000C4E700000010024000000020007000404E
:1035B0000C809F01FCFFEEFE0020B7E770B5040011
:1035C00009D0606A002540B125616561A56294F863
:1035D0005D0040B10CE0012070BD6068B0F5827FF5
:1035E000F4D0E561F2E784F85C50204600F05CF826
:1035F000022084F85D002068016821F0400101602C
:10360000E1684FF4E062914201D9002001E04FF4FB
:103610008050B1F5706F02D0914200D0A562A188B0
:10362000228901F4827102F404421143227C02F0E7
:1036300002021143227D02F001021143228B02F4A7
:1036400000721143227F02F03802114394F82020C7
:1036500002F080021143228D02F4005211432268CD
:103660001160A169042202EA114194F8242000F4B7
:10367000805002F01002114394F8342002F0080246
:103680001143A28902F47062114301432068416032
:103690002068C16921F40061C1612566012084F8B8
:1036A0005D00002070BD000010B586B004461421F6
:1036B0006846FCF7E7FD1249206888421ED1114890
:1036C000016E41F480510166016E01F48051059153
:1036D000C16C41F00101C164C06C694600F0010099
:1036E0000590A020009002200190002002900390FD
:1036F000052004904FF09040FFF768F806B010BD29
:10370000003001400010024010B5401EB0F1807F33
:1037100001D3012010BD4FF0E02460610F2160173C
:1037200000F08BFF0020A06107202061002010BD69
:10373000F0B590F83C20012A43D0012580F83C5098
:10374000022280F83D2003685A689C681E4E1F4F75
:10375000DFF87CC0B34203D0BB4201D0634504D143
:1037600022F4700E4A6842EA0E02DFF868E002EACC
:103770000E02D1F800E04EEA020EC3F804E002683F
:10378000B24212D0B2F1804F0FD0134B9A420CD0FC
:10379000124B9A4209D0124B9A4206D0BA4204D038
:1037A000104B9A4201D0624504D1896824F080030D
:1037B0001943916080F83D50002180F83C10084684
:1037C000F0BD0220F0BD0000002C0140003401409B
:1037D000005001408FFFFFFD000400400008004042
:1037E000000C00400040014010B5040003D094F8E4
:1037F0003D0010B107E0012010BD002084F83C001E
:10380000204600F023F8022084F83D00211D2068A6
:1038100000F0CCFB012084F8480084F83E0084F8D6
:103820003F0084F8400084F8410084F8420084F8A6
:10383000430084F8440084F8450084F8460084F886
:10384000470084F83D00002010BD000008B5006866
:103850000649884208D10648816D41F00201816520
:10386000806D00F00200009008BD000000040040E0
:103870000010024090F83D10012901D0012070474E
:10388000022180F83D1000681249884214D0B0F13E
:10389000804F11D0104988420ED0104988420BD079
:1038A0000F49884208D00F49884205D00E49884206
:1038B00002D00E49884207D181680D4A114006297D
:1038C00006D0B1F5803F03D0016841F001010160ED
:1038D00000207047002C0140000400400008004018
:1038E000000C004000340140004001400050014005
:1038F0000700010070B5044690F83C00002501283F
:103900001CD0012684F83C60022084F83D00226827
:103910009068334B184020F47F4090600868B0F501
:10392000005F2ED016DC402849D009DCD0B1102829
:1039300018D0202816D0302849D113E0022070BDBD
:1039400050282AD0602830D070280FD0B0F5805F82
:103950003DD13DE010F00F0F39D10111A1F58031BB
:10396000072934D822680146104625E0CB68D1E902
:103970000121206800F08CFB2068816841F077010C
:1039800009E0CB68D1E90121206800F081FB2068C3
:10399000816841F4804181601AE0CA684968206802
:1039A00000F08AFB5021206806E0CA684968206858
:1039B00000F093FB6021206800F074FB08E0CA6807
:1039C0004968206800F078FB40212068F4E7012571
:1039D00084F83D60002084F83C00284670BD00005B
:1039E00088FFCEFF90F88410012918D0012180F8BB
:1039F00084102421C0F8881001680A680B6823F03D
:103A000001030B6022F00051002242660368196036
:103A10002021C0F8881080F88420104670470220CA
:103A2000704770B5044690F8840001281DD001202D
:103A300084F884002420C4F888002068056802689F
:103A400022F0010202602068826822F060620A436C
:103A50008260204600F054FB206805602020C4F8F6
:103A60008800002084F8840070BD022070BD70B50D
:103A7000044690F8840001281DD0012084F88400B9
:103A80002420C4F8880020680568026822F001023A
:103A900002602068826822F060420A438260204609
:103AA00000F02EFB206805602020C4F8880000206C
:103AB00084F8840070BD022070BD10B5040003D0EE
:103AC000D4F8880010B107E0012010BD002084F870
:103AD0008400204600F026F82420C4F888002068DE
:103AE000016821F001010160A06A10B1204600F0D8
:103AF00029FB204600F00AFC0128E6D02068416836
:103B000021F4904141602068816821F02A018160A0
:103B10002068016841F0010101602046BDE81040C5
:103B200000F074BB10B59CB00446142115A8FCF736
:103B3000A9FB54216846FCF7A5FB17492068884279
:103B400027D104200024009003946846FFF766F80C
:103B500008B1FDF75DFD1148816D41F4802181655B
:103B6000816D01F480211A91C16C41F00201C164A0
:103B7000C06C15A900F002001A904FF44060159037
:103B80000220CDE916040720CDE918400448FEF7CD
:103B90001DFE1CB010BD0000004800400010024097
:103BA00000040048FEE700EB8100006E00F0F840E2
:103BB00070478068C0F3C00070478068C0F3800021
:103BC00070478068C0F380007047C06810F4406F91
:103BD00001D00020704701207047042303EAD1532D
:103BE00010B518444369C1F3045107248C40A34322
:103BF0008A401343436110BD00EB8100016E21F048
:103C0000004111430166704730B58BB00024089421
:103C10000994202168460A94FCF734FB1E484FF0B3
:103C2000A041042501604FF44031C0E90114C46093
:103C30000461C0E90545047744770121016280F8F9
:103C400024404FF49062C2628A02026380F8381006
:103C5000C46380F84040FEF7D5F808B1FDF7D8FC02
:103C600008A90D480894FDF7F3FC08B1FDF7D0FC56
:103C70000A4800900620CDE901047F200594CDE993
:103C8000030569460448FDF793FD002801D0FDF7C0
:103C9000BFFC0BB030BD000010000020020030045B
:103CA00000B58DB030216846FCF7ECFA1249114896
:103CB00008600846FEF797FB08B1FDF7A9FC022053
:103CC0000090002022218DF80400CDE902018DF83A
:103CD000050001210490CDE90501024607906946DF
:103CE0000548FEF797FA002801D0FDF791FC0DB0CA
:103CF00000BD000000080050DC000020114808B59D
:103D0000816C41F004018164816C01F00401009137
:103D1000816C41F001018164806C002200F001009F
:103D2000009011460B20FEF7E1FE0B20FEF7D0FEBF
:103D3000002211460C20FEF7D9FEBDE808400C20F9
:103D4000FEF7C6BE001002402DE9F04387B01421F3
:103D50006846FCF797FA2948C16C41F02001C1641C
:103D6000C16C01F020010591C16C41F00101C164F9
:103D7000C16C01F001010591C16C41F00201C16407
:103D8000C16C01F002010591C16C41F00801C164F0
:103D9000C06C4FF0904700F00800059000224021D1
:103DA0003846FEF737FEDFF85880002201214046F2
:103DB000FEF730FEDFF84C90002204214846FEF763
:103DC00029FE40200124002503268DE87100694664
:103DD0003846FEF7FBFC01AA009482E870006946B1
:103DE0004046FEF7F3FC04208DE831006946484662
:103DF0000395FEF7EBFC07B0BDE8F083001002402E
:103E000000040048000C0048124810B51049016039
:103E10004FF48271416000214FF4E062C0E9021268
:103E20004FF400720161C0E905121022C0E90721B8
:103E300007224162C0E90A12016308214163FFF7CA
:103E4000BDFB002803D0BDE81040FDF7E1BB10BD6D
:103E5000003001405001002010B588B000241848FF
:103E600000940194029403940494059413490694D5
:103E70000160A921C0E901140921C0E903148021CE
:103E80008161FFF7B1FC08B1FDF7C2FB4FF4805030
:103E9000009069460A48FFF72DFD08B1FDF7B8FB11
:103EA0002020049004A906940548FFF741FC00284F
:103EB00001D0FDF7ADFB08B010BD000000040040CC
:103EC000B4010020184810B5164901604FF4E131E3
:103ED0004160002181600C22C160C0E9041281614F
:103EE000C161016241628162FFF7E7FD08B1FDF740
:103EF0008FFB00210C48FFF7BAFD08B1FDF788FBE6
:103F000000210948FFF78DFD08B1FDF781FB064848
:103F1000FFF768FD002803D0BDE81040FDF778BB2F
:103F200010BD00000048004000020020FEE7FEE750
:103F300070477047FEF77ABD10B594B038216846D7
:103F4000FCF7A0F914210EA8FCF79CF90020FEF75D
:103F5000FFFD01210804CDE900100324CDE908414B
:103F600002202821CDE90A1007900C900D90684698
:103F7000FFF722F908B172B6FEE70F20CDE90E0473
:103F8000002010901190129004210EA8FEF7C6FF99
:103F9000002801D072B6FEE714B010BD02480168D7
:103FA00041F470010160704788ED00E02DE9F04FA9
:103FB00002682E4B2E4E2F4FDFF8BCC02F4C304DD9
:103FC0004FF0804B98420BD0584509D0B04207D0F3
:103FD000B84205D0604503D0A04201D0A84204D128
:103FE00022F070084A6842EA0802DFF89880DFF899
:103FF0009890DFF898A0984211D058450FD0B04261
:104000000DD0B8420BD0604509D0A04207D0404542
:1040100005D0484503D0504501D0A84203D122F431
:104020004076CA6832434E6922F080023243026011
:104030008A68C2620A688262984209D0A04207D0A8
:10404000404505D0484503D0504501D0A84201D194
:1040500009690163012141610169C90703D001694F
:1040600021F001010161BDE8F08F0000002C01404A
:104070000004004000080040000C004000340140F3
:104080000050014000400140004401400048014010
:1040900010B5846842EA032224F47F440A43224391
:1040A000826010BD8268034B1A400A4342F0070148
:1040B000816070478FFFCFFF10B5036A046A24F058
:1040C00001040462846924F0F00444EA021423F039
:1040D0000A020A438461026210BD10B5036A046AD1
:1040E00024F010040462846923F0A00324F47044D3
:1040F00044EA023243EA01118261016210BD00000C
:1041000030B5416EB9B1026891689268C1F34261FD
:104110000B4B520F9C5CE50003F10804A25CB5FB5D
:10412000F2F2A0F86A205A5C615CD200B2FBF1F1B5
:10413000A0F8681030BD0121A0F86A10F8E700006F
:104140002047000890F82810090706D501684A683A
:10415000836B22F400421A434A6090F82810C90782
:1041600006D001684A68C36A22F400321A434A60E2
:1041700090F82810890706D501684A68036B22F475
:1041800080321A434A6090F82810490706D5016822
:104190004A68436B22F480221A434A6090F8281040
:1041A000C90606D501688A68C36B22F480521A4397
:1041B0008A6090F82810890606D501688A68036C21
:1041C00022F400521A438A6090F82810490611D54B
:1041D00001684A68436C22F480121A434A60416CB9
:1041E000B1F5801F06D101684A68836C22F4C002D1
:1041F0001A434A6090F82810090606D501684A68F3
:10420000C06C22F4002202434A6070472DE9F84353
:1042100000260446C0F89060FEF702FC8046206845
:1042200000684FF0200500076FF07E4713D5434626
:10423000002229042046009700F0B4F958B1216803
:1042400051E8000F20F0800041E80002002AF6D17A
:10425000C4F8885021E020680068400722D5434612
:1042600000224FF480012046009700F09BF9C8B16E
:10427000216851E8000F20F4907041E80002002A04
:10428000F6D12068083050E8001F21F0010140E815
:104290000012002AF5D1C4F88C5084F88460032001
:1042A000BDE8F883C4F88850C4F88C5044F86C6FAB
:1042B000666026760020F3E710B5026852E8001F1A
:1042C00021F4907142E80013002BF6D10E4B0268E6
:1042D000083252E8001F194042E80014002CF6D1C1
:1042E000C16E012908D1016851E8002F22F01002A7
:1042F00041E80023002BF6D12021C0F88C100021CA
:10430000C166416710BD0000FEFFFFEF2DE9F041DF
:104310000446016880682269E369104362690025E8
:104320001A431043DFF84CC20A68934B1A40024309
:104330000A6020684168E26821F4405111434160FD
:104340002168A069614501D0226A10438A688B4BBD
:104350001A4002438A602068C16A626A21F00F0134
:104360001143C1628649236886488B420DD1D0F83B
:10437000880010F0030006D0012867D0022854D02E
:10438000032851D164E001204FE07F498B420BD1DB
:10439000D0F8880010F00C0047D0042845D0082839
:1043A00052D00C2840D153E078498B420BD1D0F841
:1043B000880010F0300038D0102847D0202843D093
:1043C000302831D144E072498B420BD1D0F88800BB
:1043D00010F0C00029D0402838D0802834D0C02820
:1043E00022D135E06B498B420ED1D0F8880010F411
:1043F00040701AD0B0F5807F28D0B0F5007F23D070
:10440000B0F5407F10D123E063450DD1D0F888008E
:1044100010F4406009D0B0F5806F17D0B0F5006F90
:1044200012D0B0F5406F13D010205B4A5B4F0026CE
:104430004FF40041634539D160B102280DD0042802
:104440000DD0082831D10EE00220EEE70420ECE781
:104450000820EAE7FEF756FE03E0114603E0FEF708
:1044600075FE01007BD0606A37F810206768B1FBE9
:10447000F2F007EB4703834269D8B0EB073F66D8F9
:10448000002308461946FBF7C5FE090241EA106100
:1044900002027808101871413A460023FBF7BAFE71
:1044A0003F4AA0F54071914257D950E0E3694FF679
:1044B000EF788B422BD1092849D2DFE800F00508BC
:1044C0000D48254848480E00FEF71CFE01E0FEF7A7
:1044D0002BFE010001D142E01146606A37F810005E
:1044E000B1FBF0F04100606801EB5001B1FBF0F16D
:1044F000A1F1100040452AD84FF6F07201EA0200FF
:10450000C1F34201084328E0FEF720FEE1E7092855
:104510001DD2DFE800F005080D1C1E1C1C1C0E003F
:10452000FEF7F0FD01E0FEF7FFFD010001D116E00E
:104530001146606A37F81000B1FBF0F1606801EBDA
:104540005001B1FBF0F0A0F11001414504D9012563
:1045500005E0FEF7FBFDE8E780B22168C8600120B6
:10456000A4F86A0024F8680F2846E6602661BDE8D2
:10457000F081000000800040F369FFCFFFF4FF11DD
:104580000038014000100240004400400048004054
:10459000004C0040005000400024F4000847000890
:1045A000FFFC0F002DE9F047994617460D460446DB
:1045B0004FF00008089E33E0701C31D0FEF730FA4F
:1045C000A0EB0900B04218D8BEB1206801684907C5
:1045D00026D5802D24D0402D22D0C169C94309079A
:1045E0000DD4082505622046FFF766FEC4F89050FA
:1045F00084F884800120BDE8F0870320FBE7C069D0
:10460000C04300050CD421684FF4006008622046C6
:10461000FFF752FE2020C4F8900084F88480ECE775
:104620002068C06935EA000004D00020B842C3D039
:104630000020E0E70120F9E7FEE70907090E00285E
:1046400004DB00F1E02080F80014704700F00F0058
:1046500000F1E02080F8141D704702E008C8121F26
:1046600008C1002AFAD170477047002001E001C15B
:10467000121F002AFBD1704708B5FEF7DFF9FFF7DC
:104680005BFCFFF761FBFFF739FBFFF7BDFAFFF7B4
:10469000BBFBFFF7E1FBFFF715FCFFF701FB14483D
:1046A000FCF7B8FF4FF480611248FCF77AFD12481E
:1046B00008210268916202680C21D162C160FFF793
:1046C000D9F80A20FEF770F84FF400642246084932
:1046D0000A48FDF705FD0020014600902346084AE0
:1046E0000848FDF7DFFE4FF47A70FEF75DF8FEE74D
:1046F0009402002094720020B401002010000020D9
:1047000094620020DC00002001000200040006008A
:1047100008000A000C00100020004000800000018A
:10472000010101030701000008040204080101015E
:104730000000000000000000010203040607080951
:104740000000000001020304080000101000000235
:104750001800001220000004280000143000000699
:104760003800001640000008480000185000000AF9
:104770005800001A6000000C6800001C7000000E59
:104780007800001E80000008880040109000400261
:1047900098004012A0004004A8004014B000400659
:1047A000B8004016C0004008C8004018D000400AB9
:1047B000D800401AE000400CE800401CF000400E19
:1047C000F800401E0001000808018010100180025E
:1047D0001801801220018004280180143001800615
:1047E0003801801640018008480180185001800A75
:1047F0005801801A6001800C6801801C7001800ED5
:104800007801801E800140088801C0109001C0021C
:104810009801C012A001C004A801C014B001C006D4
:10482000B801C016C001C008C801C018D001C00A34
:10483000D801C01AE001C00CE801C01CF001C00E94
:10484000F801C01E00020008080200111002000357
:10485000180200132002000528020015300200078C
:104860003802001740020009480200195002000BEC
:104870005802001B6002000D6802001D7002000F4C
:104880007802001F800280088802401190024003D5
:1048900098024013A0024005A8024015B00240074C
:1048A000B8024017C0024009C8024019D002400BAC
:1048B000D802401BE002400DE802401DF002400F0C
:1048C000F802401F00034008080380111003800312
:1048D0001803801320038005280380153003800708
:1048E0003803801740038009480380195003800B68
:1048F0005803801B6003800D6803801D7003800FC8
:104900007803801F8003C0088803C0119003C00390
:104910009803C013A003C005A803C015B003C007C7
:10492000B803C017C003C009C803C019D003C00B27
:10493000D803C01BE003C00DE803C01DF003C00F87
:10494000F803C01F00040010080408101004001130
:10495000180408122004081028040814300408065B
:104960003804081640040808480408185004080AC7
:104970005804081A6004080C6804081C7004080E27
:104980007804081E80040018880448109004001958
:1049900098044812A0040818A8044814B004480653
:1049A000B8044816C0044808C8044818D004480A87
:1049B000D804481AE004480CE804481CF004480EE7
:1049C000F804481E00054010080588101005401125
:1049D0001805881220054810280588143005880617
:1049E0003805881640058808480588185005880A43
:1049F0005805881A6005880C6805881C7005880EA3
:104A00007805881E800540188805C8109005401953
:104A10009805C812A0054818A805C814B005C8060E
:104A2000B805C816C005C808C805C818D005C80A02
:104A3000D805C81AE005C80CE805C81CF005C80E62
:104A4000F805C81E0006801008060811100680111F
:104A500018060813200688102806081530060807CF
:104A60003806081740060809480608195006080BBA
:104A70005806081B6006080D6806081D7006080F1A
:104A80007806081F8006801888064811900680194D
:104A900098064813A0068818A8064815B0064807C7
:104AA000B8064817C0064809C8064819D006480B7A
:104AB000D806481BE006480DE806481DF006480FDA
:104AC000F806481F0007C010080788111007C0111A
:104AD000180788132007C81028078815300788078B
:104AE0003807881740078809480788195007880B36
:104AF0005807881B6007880D6807881D7007880F96
:104B00007807881F8007C0188807C8119007C01948
:104B10009807C813A007C818A807C815B007C80782
:104B2000B807C817C007C809C807C819D007C80BF5
:104B3000D807C81BE007C80DE807C81DF007C80F55
:104B4000F807C81F080810101008400818081012AD
:104B50002008001128081014300880113808101699
:104B6000480810185008100A5808101A6008100C4D
:104B70006808101C7008100E7808101E8008000AC3
:104B8000880850109008000B98085012A008080AD6
:104B9000A8085014B008080BB8085016C008100A2E
:104BA000C8085018D008500AD808501AE008500C0D
:104BB000E808501CF008500EF808501E0809901024
:104BC0001009800918099012200900192809901469
:104BD00030098019380990164009000B48099018CF
:104BE0005009900A5809901A6009900C6809901CA5
:104BF0007009900E7809901E8009400A8809D0102B
:104C00009009400B9809D012A009480AA809D014AD
:104C1000B009480BB809D016C009500AC809D01805
:104C2000D009D00AD809D01AE009D00CE809D01C64
:104C3000F009D00EF809D01E080A1011180A101336
:104C4000200A4011280A1015300AC011380A10171E
:104C5000480A1019500A100B580A101B600A100D50
:104C6000680A101D700A100F780A101F880A501168
:104C7000900A800B980A5013A00A5011A80A5015E8
:104C8000B00A880BB80A5017C00A800BC80A50191E
:104C9000D00A500BD80A501BE00A500DE80A501DEC
:104CA000F00A500FF80A501F080B9011180B9013C0
:104CB000200B4019280B9015300BC019380B90179A
:104CC000480B9019500B900B580B901B600B900DDC
:104CD000680B901D700B900F780B901F880BD011F4
:104CE000900BC00B980BD013A00B5019A80BD0152C
:104CF000B00BC80BB80BD017C80BD019D80BD01BF2
:104D0000E00BD00DE80BD01DF00BD00FF80BD01F2F
:104D1000000C0012080C1810100C0013180C1812BC
:104D2000200C0812280C1814300C0813380C181614
:104D3000400C1012480C1818500C1013580C181A6C
:104D4000600C1812680C181C700C180E780C181EC9
:104D5000800C001A880C5810900C001B980C5812EC
:104D6000A00C081AA80C5814B00C081BB80C581644
:104D7000C00C101AC80C5818D00C101BD80C581A9C
:104D8000E00C181AE80C581CF00C580EF80C581EC1
:104D9000000D4012080D9810100D4013180D9812B8
:104DA000200D4812280D9814300D4813380D981610
:104DB000400D5012480D9818500D5013580D981A68
:104DC000600D5812680D981C700D980E780D981E85
:104DD000800D401A880DD810900D401B980DD812E8
:104DE000A00D481AA80DD814B00D481BB80DD81640
:104DF000C00D501AC80DD818D00D501BD80DD81A98
:104E0000E00D581AE80DD81CF00DD80EF80DD81E7C
:104E1000000E8012080E1811100E8013180E1813B1
:104E2000200E8812280E1815300E8813380E181709
:104E3000400E9012480E1819500E9013580E181B61
:104E4000600E9812680E181D700E180F780E181F3D
:104E5000800E801A880E5811900E801B980E5813E1
:104E6000A00E881AA80E5815B00E881BB80E581739
:104E7000C00E901AC80E5819D00E901BD80E581B91
:104E8000E00E981AE80E581DF00E580FF80E581F35
:104E9000000FC012080F9811100FC013180F9813AD
:104EA000200FC812280F9815300FC813380F981705
:104EB000400FD012480F9819500FD013580F981B5D
:104EC000600FD812680F981D700F980F780F981FF9
:104ED000800FC01A880FD811900FC01B980FD813DD
:104EE000A00FC81AA80FD815B00FC81BB80FD81735
:104EF000C00FD01AC80FD819D00FD01BD80FD81B8D
:104F0000E00FD81AE80FD81DF00FD81BF80FD81FE4
:104F10000810201010104010181020122810201413
:104F2000301088103810201640100011481020183A
:104F3000501040115810201A601008126810201CE0
:104F4000701088127810201E80100012881008122D
:104F50009010401298106012A0102012A810601437
:104F6000B0106012B8106016C0100013C81060189E
:104F7000D0104013D810601AE0101812E810601C0E
:104F8000F0109812F810601E081120121011401134
:104F90001811A012201108182811A0143011881817
:104FA0003811A0164811A0185811A01A6011081A3B
:104FB0006811A01C7011881A7811A01E801110129F
:104FC00088111812901150129811E012A01118189F
:104FD000A811E014B0119818B811E016C011101300
:104FE000C811E018D0115013D811E01AE011181AA6
:104FF000E811E01CF011981AF811E01E00120018D8
:105000000812081810124018181220132012201825
:10501000281220153012601838122017401200197B
:1050200048122019501240195812201B60122019E2
:105030006812201D7012C8127812201F8012001AE8
:105040008812081A9012401A98126013A012201A9F
:10505000A8126015B012601AB8126017C012001BB7
:10506000C8126019D012401BD812601BE012201B1E
:10507000E812601DF012601BF812601F0013101878
:1050800008131818101350181813A01320134818D9
:105090002813A0153013C8183813A017401310197F
:1050A0004813A019501350195813A01B6013481A25
:1050B0006813A01D7013C81A7813A01F8013101A4C
:1050C0008813181A9013501A9813E013A013581845
:1050D000A813E015B013D818B813E017C013101BAD
:1050E000C813E019D013501BD813E01BE013581A53
:1050F000E813E01DF013D81AF813E01F0814201469
:10510000101400151814201530140815381428161A
:105110004014001548142818501410155814281A53
:10512000601420156814281C701418157814281E93
:105130008014001C8814201C9014001D9814201D3D
:10514000A014081CA814281CB014081DB814681654
:10515000C014101CC8146818D014101DD814681A74
:10516000E014181CE814681CF014181DF814681ECC
:10517000081520151015401518156015201528184C
:105180002815281C301548153815A8164815A818D4
:105190005815A81A6015281A6815A81C7015A81AA1
:1051A0007815A81E8015401C8815601C9015401DA0
:1051B0009815601DA015481CA815681CB015481D41
:1051C000B815E816C015501CC815E818D015501DA4
:1051D000D815E81AE015581CE815E81CF015581DFC
:1051E000F815E81E0016001C0816081C1016401CB6
:1051F0001816481C2016201C2816281C3016601C67
:10520000381628174016001D481628195016401D3C
:105210005816281B6016201D6816281D7016601D64
:105220007816281F8016801C8816A01C9016801DDA
:105230009816A01DA016881CA816A81CB016881DBC
:10524000B8166817C016901CC8166819D016901D9D
:10525000D816681BE016981CE816681DF016981DF5
:10526000F816681F0017101C0817181C1017501C80
:105270001817581C201768182817681C3017E818CA
:105280003817A8174017101D4817A8195017501D98
:105290005817A81B6017681A6817A81D7017E81A16
:1052A0007817A81F8017C01C8817E01C9017C01D16
:1052B0009817E01DA017C81CA817E81CB017C81D38
:1052C000B817E817C017D01CC817E819D017D01D99
:1052D000D817E81BE017D81CE817E81DF017D81DF1
:1052E000F817E81F18186018301848183818601C8C
:1052F0005818301A6818301C7018181A7818301E90
:105300008018001A8818081A9018001B981860193D
:10531000A018201AA818281AB018201BB818601D49
:10532000C018101AC818181AD018101BD818701ADC
:10533000E018301AE818701CF018581AF818701E87
:10534000081920191819601A2819081D3019881908
:105350003819881D4819201B5819B01A6019081BE4
:105360006819B01C7019881B7819B01E8019401A72
:105370008819481A9019401B9819601BA019601AC7
:10538000A819181DB019601BB819981DC019501A1A
:10539000C819581AD019501BD819F01AE019181B3F
:1053A000E819F01CF019981BF819F01E381A701C37
:1053B000581A301B681A301D701A181B781A301FC3
:1053C000901AC01A981AC81AB01AE01AB81AE81A2D
:1053D000C01A801BC81A881BD01AC01BD81A701B91
:1053E000E01AA01BE81A701DF01AE01BF81A701FD3
:1053F000281B481D381BC81D481B601B581BB01BB1
:10540000681BB01D701BC81B781BB01F901BC01BF6
:10541000981BC81BA81B581DB01BE01BB81BD81D30
:10542000D81BF01BE81BF01DF81BF01F081C201CEC
:10543000181C301C381C681C481C601C581C701C34
:10544000781C381E801C001E881C201E901C001F0B
:10545000981C201FA01C081EA81C281EB01C081F7A
:10546000B81C281FC01C101EC81C301ED01C101FCA
:10547000D81C301FE01C181EE81C381EF01C181F1A
:10548000F81C781E081D201D181D301D381DA81D74
:10549000481D601D581D701D681D281F781DB81EF1
:1054A000801D401E881D601E901D401F981D601F9E
:1054B000A01D481EA81D681EB01D481FB81D681FEE
:1054C000C01D501EC81D701ED01D501FD81D701F3E
:1054D000E01D581EE81D781EF01D581FF81DF81E0F
:1054E000081E201E181E301E481E601E581E701EEC
:1054F000781E381F881EA01E901E801F981EA01F99
:10550000B01E881FB81EA81FC01E801FC81E881F7F
:10551000D01E901FD81EB01FE01EA01FE81EA81F9F
:10552000F01E981FF81E781F081F201F181F301F1D
:10553000481F601F581F701F781FB81F881FA01FAB
:10554000901FC01F981FE01FB01FC81FB81FE81F83
:10555000C81FE01FD81FF01F080000021000400005
:105560001800400220008000280080023000C000A7
:105570003800C00240000001480000035000400114
:105580005800400360008001680080037000C00183
:105590007800C00380000002880008029000000329
:1055A00098004802A0000802A8008802B000C800C5
:1055B000B800C802C0000801C8000803D0004801B4
:1055C000D8004803E0008801E8008803F000C80123
:1055D000F800C80308011002100140011801500230
:1055E0002001000328019002300148013801D00257
:1055F00048011003580150036001900168019003B5
:105600007001D0017801D0038001400288011802A6
:105610009001400398015802A0014802A801980295
:10562000B0014803B801D802C0015002C8011803F4
:10563000D0015003D8015803E0015802E801980353
:10564000F0015803F801D8030802200210024002BA
:10565000180260022802A002300260023802E00252
:105660004002000348022003500240035802600336
:10567000600220036802A003700260037802E00366
:105680008802A002900280039802A003B00288035F
:10569000B802E802C0028003C8022803D0029003C7
:1056A000D8026803E002A003E802A803F00298030E
:1056B000F802E80308032003100340031803600303
:1056C000280388033003600338039803480360030A
:1056D000580370036803B0037803F0038803A00342
:1056E0009003C0039803E003B003C803B803E803C2
:1056F000C803E003D803F003080040001800480086
:1057000010004000280050002000400038005800E1
:1057100030004800580068004800600068007000D1
:1057200008000010100000201800003020000002C7
:10573000280000123000002238000032400000042F
:105740004800001450000024580000346000000697
:1057500068000016700000267800003680000008FF
:10576000880000189000002898000038A000000A67
:10577000A800001AB000002AB800003AC000000CCF
:10578000C800001CD000002CD800003CE000000E37
:10579000E800001EF000002EF800003E00010004AA
:1057A0000801401010014020180140302001400243
:1057B00028014012300140223801403240014004AB
:1057C0004801401450014024580140346001400613
:1057D000680140167001402678014036800140087B
:1057E000880140189001402898014038A001400AE3
:1057F000A801401AB001402AB801403AC001400C4B
:10580000C801401CD001402CD801403CE001400EB2
:10581000E801401EF001402EF801403E0002000861
:1058200008028010100280201802803020028002BE
:105830002802801230028022380280324002800426
:10584000480280145002802458028034600280068E
:1058500068028016700280267802803680028008F6
:10586000880280189002802898028038A002800A5E
:10587000A802801AB002802AB802803AC002800CC6
:10588000C802801CD002802CD802803CE002800E2E
:10589000E802801EF002802EF802803E0003000C19
:1058A0000803C0101003C0201803C0302003800C70
:1058B0002803C0123003C0223803C0324003C004A2
:1058C0004803C0145003C0245803C0346003C0060A
:1058D0006803C0167003C0267803C0368003C00872
:1058E0008803C0189003C0289803C038A003C00ADA
:1058F000A803C01AB003C02AB803C03AC003C00C42
:10590000C803C01CD003C02CD803C03CE003C00EA9
:10591000E803C01EF003C02EF803C03E08040011C7
:1059200010040021180400312004000C2804001386
:1059300030040023380400334004000548040015F7
:10594000500400255804003560040007680400175F
:1059500070040027780400378004000988040019C7
:105960009004002998040039A004000BA804001B2F
:10597000B004002BB804003BC004000DC804001D97
:10598000D004002DD804003DE004000FE804001FFF
:10599000F004002FF804003F0805401110054021D5
:1059A000180540312005000D28054013300540231F
:1059B0003805403348054015500540255805403509
:1059C0006005400768054017700540277805403797
:1059D00080054009880540199005402998054039FF
:1059E000A005400BA805401BB005402BB805403B67
:1059F000C005400DC805401DD005402DD805403DCF
:105A0000E005400FE805401FF005402FF805403F36
:105A10000006400808068011100680211806803113
:105A20002006C008280680133006802338068033FD
:105A300040064009480680155006802558068035E6
:105A40006006800768068017700680277806803712
:105A5000800680098806801990068029980680397A
:105A6000A006800BA806801BB006802BB806803BE2
:105A7000C006800DC806801DD006802DD806803D4A
:105A8000E006800FE806801FF006802FF806803FB2
:105A90000007400C0807C0111007C0211807C031CB
:105AA0002007C00C2807C0133007C0233807C033B5
:105AB0004007400D4807C0155007C0255807C0359E
:105AC0006007C0076807C0177007C0277807C0378E
:105AD0008007C0098807C0199007C0299807C039F6
